{
  "contractName": "BlockWord",
  "abi": [
    {
      "inputs": [],
      "payable": false,
      "stateMutability": "nonpayable",
      "type": "constructor"
    },
    {
      "constant": true,
      "inputs": [],
      "name": "gameCurrentState",
      "outputs": [
        {
          "internalType": "enum BlockWord.gameStateList",
          "name": "",
          "type": "uint8"
        }
      ],
      "payable": false,
      "stateMutability": "view",
      "type": "function"
    },
    {
      "constant": true,
      "inputs": [],
      "name": "gameState",
      "outputs": [
        {
          "internalType": "uint8",
          "name": "",
          "type": "uint8"
        }
      ],
      "payable": false,
      "stateMutability": "view",
      "type": "function"
    },
    {
      "constant": true,
      "inputs": [],
      "name": "guessTimerSecs",
      "outputs": [
        {
          "internalType": "uint16",
          "name": "",
          "type": "uint16"
        }
      ],
      "payable": false,
      "stateMutability": "view",
      "type": "function"
    },
    {
      "constant": true,
      "inputs": [],
      "name": "maxPlayers",
      "outputs": [
        {
          "internalType": "uint8",
          "name": "",
          "type": "uint8"
        }
      ],
      "payable": false,
      "stateMutability": "view",
      "type": "function"
    },
    {
      "constant": true,
      "inputs": [],
      "name": "maxWordLetters",
      "outputs": [
        {
          "internalType": "uint8",
          "name": "",
          "type": "uint8"
        }
      ],
      "payable": false,
      "stateMutability": "view",
      "type": "function"
    },
    {
      "constant": true,
      "inputs": [],
      "name": "minPlayers",
      "outputs": [
        {
          "internalType": "uint8",
          "name": "",
          "type": "uint8"
        }
      ],
      "payable": false,
      "stateMutability": "view",
      "type": "function"
    },
    {
      "constant": true,
      "inputs": [],
      "name": "minWordLetters",
      "outputs": [
        {
          "internalType": "uint8",
          "name": "",
          "type": "uint8"
        }
      ],
      "payable": false,
      "stateMutability": "view",
      "type": "function"
    },
    {
      "constant": true,
      "inputs": [
        {
          "internalType": "uint256",
          "name": "",
          "type": "uint256"
        }
      ],
      "name": "players",
      "outputs": [
        {
          "internalType": "address",
          "name": "",
          "type": "address"
        }
      ],
      "payable": false,
      "stateMutability": "view",
      "type": "function"
    },
    {
      "constant": true,
      "inputs": [],
      "name": "roundTimerSecs",
      "outputs": [
        {
          "internalType": "uint16",
          "name": "",
          "type": "uint16"
        }
      ],
      "payable": false,
      "stateMutability": "view",
      "type": "function"
    },
    {
      "constant": true,
      "inputs": [],
      "name": "wordSelectRetryCounter",
      "outputs": [
        {
          "internalType": "uint8",
          "name": "",
          "type": "uint8"
        }
      ],
      "payable": false,
      "stateMutability": "view",
      "type": "function"
    },
    {
      "constant": true,
      "inputs": [],
      "name": "wordSelectTimerSecs",
      "outputs": [
        {
          "internalType": "uint16",
          "name": "",
          "type": "uint16"
        }
      ],
      "payable": false,
      "stateMutability": "view",
      "type": "function"
    },
    {
      "constant": true,
      "inputs": [],
      "name": "wordSelected",
      "outputs": [
        {
          "internalType": "string",
          "name": "",
          "type": "string"
        }
      ],
      "payable": false,
      "stateMutability": "view",
      "type": "function"
    },
    {
      "constant": true,
      "inputs": [
        {
          "internalType": "uint256",
          "name": "",
          "type": "uint256"
        }
      ],
      "name": "wordsUsed",
      "outputs": [
        {
          "internalType": "string",
          "name": "",
          "type": "string"
        }
      ],
      "payable": false,
      "stateMutability": "view",
      "type": "function"
    },
    {
      "constant": false,
      "inputs": [
        {
          "internalType": "uint256",
          "name": "gameId",
          "type": "uint256"
        }
      ],
      "name": "joinGame",
      "outputs": [
        {
          "internalType": "int256",
          "name": "",
          "type": "int256"
        }
      ],
      "payable": false,
      "stateMutability": "nonpayable",
      "type": "function"
    }
  ],
  "bytecode": "0x608060405234801561001057600080fd5b5061012c600060016101000a81548161ffff021916908361ffff160217905550600a600060036101000a81548161ffff021916908361ffff160217905550600a600060056101000a81548161ffff021916908361ffff16021790555060008060076101000a81548160ff021916908360ff1602179055506003600060086101000a81548160ff021916908360ff1602179055506004600060096101000a81548160ff021916908360ff160217905550600c6000600a6101000a81548160ff021916908360ff160217905550604051806020016040528060008152506002908051906020019061010092919061013d565b506004600560006101000a81548160ff021916908360ff16021790555060058060016101000a81548160ff021916908360ff1602179055506101e2565b828054600181600116156101000203166002900490600052602060002090601f016020900481019282601f1061017e57805160ff19168380011785556101ac565b828001600101855582156101ac579182015b828111156101ab578251825591602001919060010190610190565b5b5090506101b991906101bd565b5090565b6101df91905b808211156101db5760008160009055506001016101c3565b5090565b90565b6107ca806101f16000396000f3fe608060405234801561001057600080fd5b50600436106100ea5760003560e01c8063af8419701161008c578063daa62f4511610066578063daa62f4514610345578063dacd608d14610369578063efaa55a01461038f578063f71d96cb146103d1576100ea565b8063af841970146102d7578063d1f9c24d146102fd578063d71f14de14610321576100ea565b80632a3108f6116100c85780632a3108f6146101655780634c2412a21461020c5780635e33240114610230578063a7d81bcf14610254576100ea565b8063162d9e72146100ef5780631782c3dc146101155780632770c89514610141575b600080fd5b6100f761043f565b604051808261ffff1661ffff16815260200191505060405180910390f35b61011d610453565b6040518082600381111561012d57fe5b60ff16815260200191505060405180910390f35b610149610466565b604051808260ff1660ff16815260200191505060405180910390f35b6101916004803603602081101561017b57600080fd5b8101908080359060200190929190505050610479565b6040518080602001828103825283818151815260200191508051906020019080838360005b838110156101d15780820151818401526020810190506101b6565b50505050905090810190601f1680156101fe5780820380516001836020036101000a031916815260200191505b509250505060405180910390f35b610214610532565b604051808260ff1660ff16815260200191505060405180910390f35b610238610545565b604051808260ff1660ff16815260200191505060405180910390f35b61025c610558565b6040518080602001828103825283818151815260200191508051906020019080838360005b8381101561029c578082015181840152602081019050610281565b50505050905090810190601f1680156102c95780820380516001836020036101000a031916815260200191505b509250505060405180910390f35b6102df6105f6565b604051808261ffff1661ffff16815260200191505060405180910390f35b61030561060a565b604051808260ff1660ff16815260200191505060405180910390f35b61032961061c565b604051808260ff1660ff16815260200191505060405180910390f35b61034d61062f565b604051808260ff1660ff16815260200191505060405180910390f35b610371610642565b604051808261ffff1661ffff16815260200191505060405180910390f35b6103bb600480360360208110156103a557600080fd5b8101908080359060200190929190505050610656565b6040518082815260200191505060405180910390f35b6103fd600480360360208110156103e757600080fd5b8101908080359060200190929190505050610759565b604051808273ffffffffffffffffffffffffffffffffffffffff1673ffffffffffffffffffffffffffffffffffffffff16815260200191505060405180910390f35b600060019054906101000a900461ffff1681565b600360009054906101000a900460ff1681565b600560009054906101000a900460ff1681565b6001818154811061048657fe5b906000526020600020016000915090508054600181600116156101000203166002900480601f01602080910402602001604051908101604052809291908181526020018280546001816001161561010002031660029004801561052a5780601f106104ff5761010080835404028352916020019161052a565b820191906000526020600020905b81548152906001019060200180831161050d57829003601f168201915b505050505081565b600560019054906101000a900460ff1681565b600060099054906101000a900460ff1681565b60028054600181600116156101000203166002900480601f0160208091040260200160405190810160405280929190818152602001828054600181600116156101000203166002900480156105ee5780601f106105c3576101008083540402835291602001916105ee565b820191906000526020600020905b8154815290600101906020018083116105d157829003601f168201915b505050505081565b600060039054906101000a900461ffff1681565b6000809054906101000a900460ff1681565b6000600a9054906101000a900460ff1681565b600060079054906101000a900460ff1681565b600060059054906101000a900461ffff1681565b600080600560019054906101000a900460ff1660ff16600480549050101561072f57600160043390806001815401808255809150509060018203906000526020600020016000909192909190916101000a81548173ffffffffffffffffffffffffffffffffffffffff021916908373ffffffffffffffffffffffffffffffffffffffff160217905550039050600560019054906101000a900460ff1660ff166004805490501415610726576001600360006101000a81548160ff0219169083600381111561072057fe5b02179055505b80915050610754565b7fffffffffffffffffffffffffffffffffffffffffffffffffffffffffffffffff9150505b919050565b6004818154811061076657fe5b906000526020600020016000915054906101000a900473ffffffffffffffffffffffffffffffffffffffff168156fea265627a7a72315820ca05e623f983cdef82818cb22ea3ea4a78ae1b6405defab68e23d047100d645964736f6c634300050c0032",
  "source": "// Blockword Contract\npragma solidity >=0.5.0 <0.7.0;\n\n// Variables - gamestate, and timers\ncontract BlockWord {\n    uint8 public gameState;\n    uint16 public roundTimerSecs;\n    uint16 public wordSelectTimerSecs;\n    uint16 public guessTimerSecs;\n    uint8 public wordSelectRetryCounter;\n    uint8 private wordSelectRetryMax;\n    uint8 public minWordLetters;\n    uint8 public maxWordLetters;\n    string[] public wordsUsed;\n    string public wordSelected;\n// declaring a new type called gameStateList\n    enum gameStateList {gameWaitState, wordSelectState, wordGuessStartState, wordGuessContinueState}\n    gameStateList public gameCurrentState;\n    address[] public players;\n    uint8 public minPlayers;\n    uint8 public maxPlayers;\n\n// Constructor is initializer, it is only rutn once.\n    constructor() public {\n        roundTimerSecs = 300; //round is 5 minutes\n        wordSelectTimerSecs = 10;\n        guessTimerSecs = 10;\n        wordSelectRetryCounter = 0;\n        wordSelectRetryMax = 3;\n        minWordLetters = 4;\n        maxWordLetters = 12;\n        wordSelected = \"\";\n        minPlayers = 4;\n        maxPlayers = 5;\n    }\n    function joinGame (uint gameId) public returns (int) {\n        uint playerId;\n        if (players.length < maxPlayers) {\n            // push creates an entry in the array called players\n            playerId = players.push(msg.sender)-1;\n            // get players value and then subtract 1. first player will be 0. second player will be 1.\n            if (players.length == maxPlayers) {\n                gameCurrentState = gameStateList.wordSelectState;\n            }\n            return int (playerId);\n        }\n        return -1;\n    }\n}",
  "sourcePath": "/Users/rondoupo/Projects/Truffle/drizzle-react-tut/contracts/BlockWord.sol",
  "compiler": {
    "name": "solc",
    "version": "0.5.12+commit.7709ece9.Emscripten.clang"
  },
  "schemaVersion": "3.0.19",
  "updatedAt": "2020-03-19T00:46:42.389Z",
  "networkType": "ethereum",
  "devdoc": {
    "methods": {}
  },
  "userdoc": {
    "methods": {}
  }
}